{
  "contractName": "Certificates",
  "abi": [
    {
      "constant": true,
      "inputs": [
        {
          "name": "",
          "type": "uint256"
        },
        {
          "name": "",
          "type": "uint256"
        }
      ],
      "name": "idToCertificates",
      "outputs": [
        {
          "name": "amount",
          "type": "uint256"
        },
        {
          "name": "timestamp",
          "type": "uint256"
        },
        {
          "name": "certType",
          "type": "uint8"
        }
      ],
      "payable": false,
      "stateMutability": "view",
      "type": "function",
      "signature": "0x9c9e7240"
    },
    {
      "constant": false,
      "inputs": [
        {
          "name": "_id",
          "type": "uint256"
        },
        {
          "name": "_amount",
          "type": "uint256"
        },
        {
          "name": "_timestamp",
          "type": "uint256"
        },
        {
          "name": "_type",
          "type": "uint8"
        }
      ],
      "name": "pushCertificate",
      "outputs": [],
      "payable": false,
      "stateMutability": "nonpayable",
      "type": "function",
      "signature": "0xd0a25756"
    },
    {
      "constant": true,
      "inputs": [
        {
          "name": "_id",
          "type": "uint256"
        }
      ],
      "name": "certificates",
      "outputs": [
        {
          "name": "",
          "type": "uint256[]"
        },
        {
          "name": "",
          "type": "uint256[]"
        },
        {
          "name": "",
          "type": "uint8[]"
        }
      ],
      "payable": false,
      "stateMutability": "view",
      "type": "function",
      "signature": "0x663b3e22"
    }
  ],
  "bytecode": "0x608060405234801561001057600080fd5b5061056d806100206000396000f3fe608060405234801561001057600080fd5b506004361061005e576000357c010000000000000000000000000000000000000000000000000000000090048063663b3e22146100635780639c9e724014610176578063d0a25756146101de575b600080fd5b61008f6004803603602081101561007957600080fd5b810190808035906020019092919050505061022d565b60405180806020018060200180602001848103845287818151815260200191508051906020019060200280838360005b838110156100da5780820151818401526020810190506100bf565b50505050905001848103835286818151815260200191508051906020019060200280838360005b8381101561011c578082015181840152602081019050610101565b50505050905001848103825285818151815260200191508051906020019060200280838360005b8381101561015e578082015181840152602081019050610143565b50505050905001965050505050505060405180910390f35b6101ac6004803603604081101561018c57600080fd5b810190808035906020019092919080359060200190929190505050610447565b604051808481526020018381526020018260018111156101c857fe5b60ff168152602001935050505060405180910390f35b61022b600480360360808110156101f457600080fd5b81019080803590602001909291908035906020019092919080359060200190929190803560ff169060200190929190505050610498565b005b606080606080600080868152602001908152602001600020805490506040519080825280602002602001820160405280156102775781602001602082028038833980820191505090505b5090506060600080878152602001908152602001600020805490506040519080825280602002602001820160405280156102c05781602001602082028038833980820191505090505b5090506060600080888152602001908152602001600020805490506040519080825280602002602001820160405280156103095781602001602082028038833980820191505090505b50905060005b6000808981526020019081526020016000208054905081101561043357600080898152602001908152602001600020818154811061034957fe5b90600052602060002090600302016000015484828151811061036757fe5b602002602001018181525050600080898152602001908152602001600020818154811061039057fe5b9060005260206000209060030201600101548382815181106103ae57fe5b60200260200101818152505060008089815260200190815260200160002081815481106103d757fe5b906000526020600020906003020160020160009054906101000a900460ff1682828151811061040257fe5b6020026020010190600181111561041557fe5b9081600181111561042257fe5b81525050808060010191505061030f565b508282829550955095505050509193909250565b6000602052816000526040600020818154811061046057fe5b9060005260206000209060030201600091509150508060000154908060010154908060020160009054906101000a900460ff16905083565b60008085815260200190815260200160002060405180606001604052808581526020018481526020018360018111156104cd57fe5b81525090806001815401808255809150509060018203906000526020600020906003020160009091929091909150600082015181600001556020820151816001015560408201518160020160006101000a81548160ff0219169083600181111561053357fe5b02179055505050505050505056fea165627a7a723058208dfa4b10c23cf1fd46b1c5acb6e4da8a1effd2953210f7e6960165e1e4b3ed3d0029",
  "source": "pragma solidity ^0.5.7;\n\ncontract Certificates {\n    enum CertType { Transferable, NonTransferable }\n\n    mapping(uint => Certificate[]) public idToCertificates;\n\n    struct Certificate {\n        uint amount;\n        uint timestamp;\n        CertType certType;\n    }\n\n    function pushCertificate(\n        uint _id, uint _amount, uint _timestamp, CertType _type\n    ) external {\n        idToCertificates[_id].push(Certificate(_amount, _timestamp, _type));\n    }\n\n    function certificates(uint _id) public view returns(uint[] memory, uint[] memory, CertType[] memory) {\n        uint[] memory amounts = new uint[](idToCertificates[_id].length);\n        uint[] memory timestamps = new uint[](idToCertificates[_id].length);\n        CertType[] memory certTypes = new CertType[](idToCertificates[_id].length);\n\n        for(uint i; i < idToCertificates[_id].length; i++) {\n            amounts[i] = idToCertificates[_id][i].amount;\n            timestamps[i] = idToCertificates[_id][i].timestamp;\n            certTypes[i] = idToCertificates[_id][i].certType;\n        }\n\n        return (amounts, timestamps, certTypes);\n    }\n}\n",
  "sourcePath": "/Users/roeldejong/Development/Ethereum/odyssey/energy/contracts/Certificates.sol",
  "compiler": {
    "name": "solc",
    "version": "0.5.7+commit.6da8b019.Emscripten.clang"
  },
  "schemaVersion": "3.0.6",
  "updatedAt": "2019-04-13T17:23:37.056Z",
  "devdoc": {
    "methods": {}
  },
  "userdoc": {
    "methods": {}
  }
}